:020000040800F2
:10000000D8070020CD010008FF150008691400087A
:10001000FD150008D3020008C91A000800000000FE
:10002000000000000000000000000000EF160008C3
:10003000D502000800000000ED160008F1160008C7
:10004000E7010008E7010008E7010008E7010008F0
:10005000E7010008E7010008E7010008E7010008E0
:10006000E7010008E7010008E7010008E7010008D0
:10007000E7010008E7010008E7010008E7010008C0
:10008000E7010008E7010008E7010008E7010008B0
:10009000E7010008E7010008E7010008E7010008A0
:1000A000E7010008E7010008E7010008E701000890
:1000B00061170008E7010008E7010008E7010008F0
:1000C000E7010008E7010008E7010008E701000870
:1000D000E7010008BD1A0008E7010008E701000871
:1000E000E7010008E7010008E7010008E701000850
:1000F000E7010008E7010008E7010008E701000840
:10010000E7010008E7010008E7010008E70100082F
:10011000E7010008E7010008E7010008E70100081F
:10012000E7010008E7010008E7010008E70100080F
:1001300000F002F800F03AF80AA090E8000C8244BF
:100140008344AAF10107DA4501D100F02FF8AFF29C
:10015000090EBAE80F0013F0010F18BFFB1A43F0A5
:10016000010318472430000044300000103A24BF37
:1001700078C878C1FAD8520724BF30C830C144BF0C
:1001800004680C607047000000230024002500264E
:10019000103A28BF78C1FBD8520728BF30C148BFEA
:1001A0000B6070471FB51FBD10B510BD00F058F8AB
:1001B0001146FFF7F7FF01F05BFE00F076F803B49D
:1001C000FFF7F2FF03BC00F07DF80000094880470C
:1001D00009480047FEE7FEE7FEE7FEE7FEE7FEE729
:1001E000FEE7FEE7FEE7FEE704480549054A064B41
:1001F000704700005317000831010008D8010020A3
:10020000D8070020D8030020D80300204FF00002B8
:1002100000B5134694469646203922BFA0E80C50FC
:10022000A0E80C50B1F12001BFF4F7AF090728BFD7
:10023000A0E80C5048BF0CC05DF804EB890028BF53
:1002400040F8042B08BF704748BF20F8022B11F07C
:10025000804F18BF00F8012B7047704770477047F8
:10026000754600F02BF8AE4605006946534620F06F
:100270000700854618B020B5FFF7B6FFBDE820405F
:100280004FF000064FF000074FF000084FF0000B52
:1002900021F00701AC46ACE8C009ACE8C009ACE805
:1002A000C009ACE8C0098D46704710B50446AFF3ED
:1002B00000802046BDE81040FFF781BF004870472E
:1002C0007401002001491820ABBEFEE726000200A1
:1002D0007047FEE7704772B6FEE710B590F8211040
:1002E0000022022905D00421816380F8202001200A
:1002F00010BD01680B6823F00E030B6001680B68EA
:1003000023F001030B6090F84030C46B012101FA27
:1003100003F3636080F8211080F82020104610BDA0
:100320002DE9F05F90F821100024022903D0042168
:100330008163012485E001680A6822F00E020A60E8
:1003400001680A6822F001020A603F4E3E4FB21572
:10035000DFF8F4C0DFF8F090DFF8ECA0DFF8E8B0E9
:10036000DFF8E4E00168783F13011502ACF1640C9A
:10037000A9F15009AAF13C0AABF1280BAEF1140E19
:100380004FF48018B14227D9B9420ED0614512D03E
:1003900049451DD0514518D0594518D0714501D156
:1003A000424615E0294EB14201D1012210E0274E0C
:1003B0001436B14201D110220AE0244E2836B1424F
:1003C00006D0224A3C32914201D11A4600E02A4628
:1003D0001E49091F0A602BE0B94213D0614517D0AE
:1003E000494522D051451DD059451DD0714501D1F7
:1003F00042461AE0B14202D14FF0807215E0134E2E
:10040000B14201D1012210E0104E1436B14201D1A7
:1004100010220AE00D4E2836B14206D00B4A3C327B
:10042000914201D11A4600E02A46074980394A60C4
:10043000012180F82110002180F82010416B01B1CA
:1004400088472046BDE8F09F800002400804024033
:100450002DE9F84FDFF8C8910024A9F1040B2346D9
:100460000F2709F1040AABF1040ED1E00125A540E4
:1004700006EA0502AA4276D1DFF8A8C14E68A6EBCB
:100480000C0866452BD00DDC032E34D005DC36B3CA
:10049000012E19D0022E2FD11BE0112E16D0122EB4
:1004A0002AD119E0B8F5881F19D006DCB8F5803FCD
:1004B00015D0B8F5801F1FD111E0B8F5001F0ED080
:1004C000B8F5041F18D10AE0CB6815E0CB681B1DF6
:1004D00012E0CB6808330FE0CB680C330CE08B687C
:1004E0002BB1012B4FF0080303D0456104E0042336
:1004F00002E0056100E00023FF2A01D8064601E082
:1005000000F104064FEA840501D9A5F12005D6F8CB
:10051000008007FA05FC28EA0C0803FA05F548EA0A
:100520000508C6F800804D68ED0070D53E4DAE69F7
:1005300046F00106AE61AD6924F0030605F0010541
:1005400000953A4D06EB050CDCF80850A607360F6F
:1005500007FA06F825EA0805DFF8D480404503D1FC
:100560004FF0000825E052E0DFF8C880404502D196
:100570004FF001081DE0DFF8C080404502D14FF088
:10058000020816E0DFF8B480404502D14FF00308BE
:100590000FE0DFF8AC80404502D14FF0040808E0DE
:1005A000DFF8A080404502D14FF0050801E04FF090
:1005B000060808FA06F848EA0508CCF808804D68ED
:1005C000D9F80060ED024D4601D5164300E0964390
:1005D0002E604D68DAF80060AD02554601D516432D
:1005E00000E096432E604D68DBF80060AD035D4689
:1005F00001D5164300E096432E604D68DEF800609A
:10060000ED03754601D5164300E096432E60641C49
:100610000A681646E2407FF429AFBDE8F88F000073
:1006200008040140000011100010024000000140C9
:1006300000080140000C014000100140001401407E
:1006400000180140001C01408068084000D00120D3
:1006500070470AB1016170470904FBE701488068EF
:10066000704700000C0000200248816802781144A5
:10067000816070470C000020074810B5016841F008
:1006800010010160032000F075F80F2000F006F85B
:1006900000F024F8002010BD0020024070B50D4D80
:1006A00004464FF47A712878B1FBF0F00A490968E2
:1006B000B1FBF0F000F0DCFA48B9102C07D20022B0
:1006C0002146501E00F036F800206C6070BD0120FD
:1006D00070BD00000C000020180000200C4808B578
:1006E000816941F001018161816901F0010100919D
:1006F000C16941F08051C161C06900F08050009033
:100700000448416821F0E06141F00071416008BD9A
:100710000010024000000140002809DB00F01F0229
:10072000012191404009800000F1E020C0F8001153
:1007300070470000F0B40E4B1B680C46C3F3022355
:10074000C3F10705042D00D90425191D072901D27D
:10075000002300E0DB1E012606FA05F1491E2140B8
:1007600099409E40761E16403143F0BC01F0C1B95D
:100770000CED00E0064900F0070208684FF6FF03A1
:10078000184040EA0220034A104308607047000006
:100790000CED00E00000FA052DE9F0470F460500DA
:1007A00061D0434E306800F00700B84209D230688B
:1007B00020F0070038433060306800F00700B8428E
:1007C00051D128683B4C810712D5400703D560689A
:1007D00040F4E06060602878000703D5606840F46A
:1007E000605060606068A96820F0F00008436060B5
:1007F0002878C00728D06868012810D0216802280E
:1008000010D0890700292EDA616821F00301014325
:100810006160FFF723FF804641F288390DE02168CF
:100820008903EFE78901EDE7FFF718FFA0EB080167
:10083000494502D90320BDE8F0876068696800F087
:100840000C00B0EB810FEFD1306800F00700B84228
:100850000BD9306820F0070038433060306800F072
:100860000700B84201D00120E5E72878400705D508
:100870006068E96820F4E060084360602878000759
:1008800006D56068296920F4605040EAC1006060C4
:1008900000F038F86168084AC1F30311515CC840A0
:1008A0000649086006480068FFF7F8FE0020C2E726
:1008B0000020024000100240D8300008180000203C
:1008C000100000200448054900684968044AC1F343
:1008D0000221515CC84070471800002000100240FF
:1008E000E83000080448054900684968044AC1F333
:1008F000C221515CC840704718000020001002401F
:10090000E83000080E4A51680E4801F00C03042B31
:1009100011D0082B0FD10C48C1F38343C903C05C2D
:100920000AD55168084AC1F34041921E515C054AFC
:100930005043B0FBF1F07047044948437047000052
:100940000010024000127A00C830000800093D0083
:100950002DE9F84F040070D02078C04DC00749D071
:100960006868C0F38100012807D06868C0F381007F
:10097000022809D16868C00306D52868800339D5E4
:1009800060680028E7D035E06068B0F5803F0BD0A4
:1009900010B1B0F5A02F11D0286820F48030286065
:1009A000286820F4802002E0286840F48030286025
:1009B000606890B1FFF752FE06460AE0286840F4EE
:1009C00080202860F0E700BFFFF748FE801B642806
:1009D00073D828688003F7D50CE0FFF73FFE064682
:1009E00005E000BFFFF73AFE801B6428F0D82868B6
:1009F0008003F7D420789A4E80074FF001094FF01A
:100A0000000839D5686810F00C0F07D06868C0F38B
:100A10008100022809D16868C00306D428688007CD
:100A200014D52069012808D110E02069B0B1C6F8BA
:100A30000090FFF713FE074605E00AE1FFF70EFE00
:100A4000C01B0228C4D828688007F7D528686169C8
:100A500020F0F80040EAC10028600DE0C6F80080F0
:100A6000FFF7FCFD074604E0FFF7F8FDC01B022876
:100A700023D828688007F7D4207800072CD5794838
:100A8000A169D9B1C0F80090FFF7E8FD074604E07E
:100A9000FFF7E4FDC01B02280FD8686A8007F7D56E
:100AA00071484FF4FA510068B0FBF1F0009000BFBC
:100AB0000098411E0091FAD20EE080E0C0F800805C
:100AC000FFF7CCFD074604E0FFF7C8FDC01B022876
:100AD00075D8686A8007F7D42078400760D5E86940
:100AE0000027C00008D4E86940F08050E861E86958
:100AF000012700F0805000905C480168C90513D4BC
:100B00000168834641F480710160FFF7A7FD8246CA
:100B100006E000BFFFF7A2FDA0EB0A0064284ED854
:100B2000DBF80000C005F5D5E06801280AD008B15F
:100B3000052813D0286A20F001002862286A20F0D6
:100B4000040002E0286A40F001002862E06841F2F7
:100B5000883B98B1FFF782FD82460BE0286A40F09F
:100B600004002862EEE700BFFFF778FDA0EB0A0162
:100B700059455AD8286A8007F6D50CE0FFF76EFD74
:100B8000824605E0FFF76AFDA0EB0A0159454CD803
:100B9000286A8007F6D41FB1E86920F08050E86128
:100BA000E06988B36968C1F38101022944D0022851
:100BB000C6F8608004D0FFF751FD044638E034E009
:100BC000FFF74CFD074604E0FFF748FDC01B022875
:100BD0002BD828688001F7D4206AB0F5803F05D172
:100BE0006868A16820F4003008436860D4E908010F
:100BF0000843696821F4741108436860C6F860907E
:100C0000FFF72CFD044606E025E000BFFFF726FDB8
:100C1000001B022809D828688001F7D51BE000BF17
:100C2000FFF71CFD001B022802D90320BDE8F88F46
:100C300028688001F4D40EE00128F7D06868226AA1
:100C400000F48031914204D1616A00F4701088424E
:100C500001D00120EAE70020E8E700000010024090
:100C60000000424280044242180000200070004010
:100C700010B5401EB0F1807F01D3012010BD4FF0B0
:100C8000E02460610F21601700F033FF0020A061B5
:100C900007202061002010BD7047704770B590F8A4
:100CA0003C20012A2CD0012480F83C40022280F80C
:100CB0003D2003685A689D6822F070060A68324336
:100CC0005A60104B02689A420ED00F4B9A420BD0DA
:100CD000B2F1804F08D00D4B9A4205D00C4B9A428E
:100CE00002D00C4B9A4204D1496825F08003194385
:100CF000916080F83D40002180F83C10084670BDAE
:100D0000022070BD002C014000340140000400406E
:100D100000080040000C004010B5040003D094F817
:100D20003D0010B107E0012010BD002084F83C0018
:100D3000204600F01FF8022084F83D00211D2068A5
:100D400000F018FD012084F8460084F83E0084F885
:100D50003F0084F8400084F8410084F8420084F8A1
:100D6000430084F8440084F8450084F83D000020E6
:100D700010BD000008B50068B0F1804F12D10A48DC
:100D8000C16941F00101C161C069002200F00100A8
:100D9000009011461C20FFF7CDFCBDE808401C2048
:100DA000FFF7BABC08BD00000010024090F83D10EB
:100DB000012901D001207047022180F83D1001680F
:100DC000CA6842F00102CA6000680E4988420ED02B
:100DD0000D4988420BD0B0F1804F08D00B498842B2
:100DE00005D00B49884202D00A49884204D1816863
:100DF00001F00701062903D0016841F001010160FB
:100E000000207047002C01400034014000040040E5
:100E100000080040000C004070B5044690F83C000B
:100E20000025012817D0012684F83C60022084F8B0
:100E30003D002068826822F0770222F47F428260BF
:100E40000868502838D00DDC20284FD005DC90B33E
:100E5000102811D14AE0022070BD302846D0402829
:100E60000AD13BE060282FD070280DD0B0F5805F0C
:100E700003D0B0F5005F12D0012584F83D6000205A
:100E800084F83C00284670BDCB68D1E90121206878
:100E900000F0B6FC2068816841F0770109E0CB687A
:100EA000D1E90121206800F0ABFC2068816841F4A1
:100EB00080418160E1E719E0CA684968206800F074
:100EC000B1FC5021206806E0CA684968206800F03B
:100ED000BAFC6021206800F09DFCCEE7CA68496832
:100EE000206800F09FFC40212068F4E7226801465A
:100EF0001046F0E7704770B50446006801694FF08E
:100F00000005C943890715D4C168C943890711D4AD
:100F1000E91E016101202077206880698007204652
:100F200002D0FFF7E7FF04E000F098F8204600F059
:100F300096F8257720680169C943490717D4C16825
:100F4000C943490713D46FF00401016102202077DF
:100F50002068806910F4407F204602D0FFF7CAFF66
:100F600004E000F07BF8204600F079F8257720684F
:100F70000169C943090716D4C168C943090712D4D6
:100F80006FF008010161042020772068C0698007A4
:100F9000204602D0FFF7AEFF04E000F05FF82046E5
:100FA00000F05DF8257720680169C943C90617D4A8
:100FB000C168C943C90613D46FF01001016108204C
:100FC00020772068C06910F4407F204602D0FFF7E8
:100FD00091FF04E000F042F8204600F040F8257749
:100FE00020680169C943C90708D1C168C943C90755
:100FF00004D1891E0161204600F032F820680169A1
:10100000C943090609D4C168C943090605D46FF06C
:10101000800101612046FFF73FFE20680169C94356
:10102000490609D4C168C943490605D46FF0400197
:101030000161204600F015F820680169C94389065E
:101040000BD4C168C943890607D46FF02001016140
:101050002046BDE87040FFF720BE70BD7047704766
:101060007047704770477047F8B5016804460868D4
:10107000CA684B6910F00F0F4FF0000559D003F00C
:10108000010602F49077374365D0C10705D0D1053A
:1010900003D5616C41F001016164410705D5D907B1
:1010A00003D0616C41F002016164810705D5D90765
:1010B00003D0616C41F004016164010707D502F0BF
:1010C0002001314303D0616C41F008016164616C1F
:1010D00000293AD0800604D5900602D5204600F0BB
:1010E000F3FB20684069616CC0F38010090700D4ED
:1010F00060B3204600F0C1FB20684069400621D55E
:101100002068143050E8001F21F0400140E8001230
:10111000002AF5D1E06BA8B16D494163E06BFFF7A0
:10112000FFF8002811D0E06B416B01B0BDE8F04042
:10113000084783060FD593060DD52046BDE8F84035
:1011400000F0C2BB2046FFF78EFFF8BD2046FFF738
:101150008AFF6564F8BD266B2023012E7CD1C6066C
:101160007AD5D60678D508684868009048694FF067
:101170000206400640D5E16B086840680004000C98
:10118000E8D0A28D8242E5D9E085886920282DD05B
:1011900020680C3050E8001F21F4807140E80012F4
:1011A000002AF5D12068143050E8001F21F0010119
:1011B00040E80012002AF5D12068143050E8001FE2
:1011C00021F0400140E80012002AF5D184F84230B5
:1011D000256320680C3050E8001F21F0100140E822
:1011E0000012002AF5D1E06BFFF777F86663A08D57
:1011F000E18D401A81B22AE0A08DE18D401A81B2C2
:10120000E08D0028A6D00029A4D022680C3252E834
:10121000000F20F4907042E80007002FF5D12068FD
:10122000143050E8002F22F0010240E80027002F80
:10123000F5D184F84230256320680C3050E8002F47
:1012400022F0100240E80023002BF5D1666320460F
:10125000FFF708FFF8BDFFE705062BD5150629D5D2
:1012600094F841002128F5D1A068B0F5805F01D144
:101270002069B0B1206A411C216221680078486071
:10128000E08C401E0004000CE084E3D12068C168BB
:1012900021F08001C1602068C16841F04001C16057
:1012A000D8E7206A0088C0F308004860206A801CE4
:1012B0002062E5E74006CDD55006CBD5CA6820466A
:1012C00022F04002CA6084F8413000F0CCF8C1E757
:1012D0006B18000870B5040004D094F84100002594
:1012E00010B106E0012070BD84F84050204600F0A7
:1012F00023F8242084F841002068C16821F40051BB
:10130000C160204600F042FB2068016921F4904151
:1013100001612068416921F02A0141612068C168AA
:1013200041F40051C1606564202084F8410084F8D4
:1013300042006563002070BD30B585B00024009484
:101340000194029403940068184988422CD11848EB
:10135000816941F480418161816901F48041049196
:10136000816941F0040181618069124D00F004003F
:1013700004904FF40070009002200190032003902D
:1013800069462846FFF764F82815CDE90004694648
:1013900028460294FFF75CF8002211462520FFF74B
:1013A000C9F92520FFF7B8F905B030BD0038014074
:1013B00000100240000801402DE9F843044690F86F
:1013C0004200994616460D46202802D00220BDE86C
:1013D000F883ADB1A6B100206064222184F84210E8
:1013E0002063FFF73BF9A6858046E685A0684FF4A9
:1013F0008057B84201D1206920B12E46002526E051
:101400000120E4E7002622E0434600222021204676
:10141000CDF8009000F016FB08B10320D7E726B105
:10142000A068B8421BD038B108E020684068C0F31B
:10143000080025F8020B07E0206980B120684068A9
:1014400000F07F0006F8010BE08D401EE085E08D86
:101450000028D9D1202084F842000020B7E7206876
:101460004068EFE770477047FEE7000070B5124C28
:101470004FF48076651531462046FFF7E5F880B1D8
:1014800029462046FFF7E0F80028F4D129462046F7
:10149000FFF7DAF80028F9D0142000F0C9FC022088
:1014A00070BD31462046FFF7CFF80028F9D0142050
:1014B00000F0BEFC012070BD00100140F0B585B009
:1014C000002423480094019402940394816941F01C
:1014D00020018161816901F020010491816941F05D
:1014E00004018161816901F004010491816941F085
:1014F000100181618069174F00F0100004900022F4
:10150000AA213846FFF7A5F80122160231463846CF
:10151000FFF79FF8AA200125CDE900050320CDE9BA
:10152000024069463846FEF793FF4FF440708DE85D
:10153000310069460848FEF78BFF0220CDE90240E2
:10154000CDE9006569463846FEF782FF05B0F0BD7B
:1015500000100240000801400010014010B586B0A4
:1015600000241748009401940294039404944FF0CB
:101570008041059401604821C0E9011442F20F71D5
:10158000C0E9031480218161FFF7C6FB08B1FEF7B3
:10159000A2FE4FF48050009069460948FFF73CFCDA
:1015A00008B1FEF798FE049404A905480594FFF7D6
:1015B00075FB002801D0FEF78EFE06B010BD0000BE
:1015C000600000200C4810B50A4901604FF4E13179
:1015D0004160002181600C22C160C0E90412816178
:1015E000C161FFF777FE002803D0BDE81040FEF789
:1015F00072BE10BD00380140A8000020FEE7FEE7E3
:1016000070B5384C384D214666788A78511CCBB27B
:10161000002136B1012E08D0022E1AD0032E1FD081
:1016200005E02C2803D101210FE004280CD06170C3
:10163000A17000202954401CC0B20728FAD9A07814
:1016400000F00700A07070BD02216170A854A37063
:10165000F5E7A854A370072BF1D303206070EEE7E1
:101660005B28617006D000202954401CC0B20928B4
:10167000FAD9E4E7A8541C4EA370A8780C360428C5
:1016800030720FD0052816D003281DD8154A95F9B9
:101690000410121D22F81010083295F9061022F8D5
:1016A0001010CCE795F904007D28C8D0308095F95A
:1016B0000600B080C3E795F904007D28BFD0708094
:1016C00095F90600F080BAE70728B8D195F904002B
:1016D00001F028FBF06095F9060001F023FB306172
:1016E000ADE700002C000020F0000020704770479C
:1016F000FEF7BABF30B58FB028216846FEF786FDE9
:1017000014210AA8FEF782FD01210804CDE900108A
:101710000024029402250491CDE907504FF4E01013
:1017200009906846FFF714F908B172B6FEE70F207A
:10173000CDE90A054FF48060CDE90C4002210AA8EA
:101740000E94FFF729F8002801D072B6FEE70FB01B
:1017500030BD7047014901200870704740000020EB
:1017600010B50348FFF7C7FBBDE81040FFF7F2BF15
:1017700060000020F0B502681C4B1D4D1D4E1E4F31
:101780001E4C4FF0804C984209D0A04207D06045D3
:1017900005D0A84203D0B04201D0B84204D122F013
:1017A000700E4A6842EA0E02984209D0A04207D061
:1017B000604505D0A84203D0B04201D0B84203D161
:1017C00022F44075CA682A434D6922F080022A43F8
:1017D00002608A68C2620A688262984201D0A042AE
:1017E00001D10969016301214161F0BD002C014073
:1017F0000004004000080040000C0040003401409C
:1018000010B5846842EA032224F47F440A43224349
:10181000826010BD826822F070020A4342F0070124
:101820008160704710B5036A046A24F00104046201
:10183000846924F0F00444EA021423F00A020A4303
:101840008461026210BD10B5036A046A24F01004BA
:101850000462846923F0A00324F4704444EA023251
:1018600043EA01118261016210BD10B5406A002196
:10187000C185C184FFF7F7FB10BD01680C3151E849
:10188000002F22F4907241E80023002BF5D101686B
:10189000143151E8002F22F0010241E80023002B0F
:1018A000F5D1016B012909D101680C3151E8002FF4
:1018B00022F0100241E80023002BF5D1202180F80E
:1018C000421000210163704708B590F842102229A8
:1018D00001D0022008BD82684FF480539A4201D1A2
:1018E000016921B1816A9A421BD04AB10AE00268BB
:1018F000816A5268C2F308020A80816A891C08E082
:10190000026972B10268526802F07F020A70816A4D
:10191000491C8162C18D491E0904090CC18503D08F
:101920001BE002685268F1E70168CA6822F02002F1
:10193000CA600168CA6822F48072CA6001684A6994
:1019400022F001024A61202180F842100021416307
:10195000026B012A03D0FFF785FD002008BD01635B
:1019600001680C3151E8002F22F0100241E80023F9
:10197000002BF5D101680A68D20602D50A684968C9
:101980000091818DFFF76EFBE7E7000070B504461C
:1019900000680169E26821F4405111430161216945
:1019A000A0680843616908432168CA6841F20C6372
:1019B0009A430243CA6020684169A26921F44071D8
:1019C000114341611E492068884202D1FEF78AFF17
:1019D00001E0FEF777FF00EBC00101EB0012606849
:1019E00064218000B2FBF0F3B3FBF1F36FF0180653
:1019F0007343B2FBF0F5B2FBF0F605EB830532233F
:101A000003EB0515B5FBF1F5B6FBF1F605F0F005B6
:101A100005EB0615B2FBF0F6B2FBF0F0B0FBF1F00F
:101A20006FF01802504306EB800003EB0010B0FB90
:101A3000F1F0216800F00F002844886070BD0000BC
:101A4000003801402DE9F041984617460E460446FD
:101A5000069D27E0681C25D02DB1FEF7FFFDA0EB09
:101A60000800A8421ED920680C3050E8001F21F45D
:101A7000D07140E80012002AF5D12068143050E8F7
:101A8000001F21F0010140E80012002AF5D12020BA
:101A900084F8410084F84200002084F840000320CC
:101AA000BDE8F0812068006836EA000004D000201C
:101AB000B842CFD00020F3E70120F9E70148FFF753
:101AC000D3BA0000A8000020FEE7490050EAC12078
:101AD00018BF04204A0D18BF40F0010040F2FF7209
:101AE000B2EB515F08BF40F00200012808BF05209B
:101AF00070470907090E002804DB00F1E02080F898
:101B00000014704700F00F0000F1E02080F8141D71
:101B100070472DE9F0414F1E00EBC7010446D1E9A3
:101B2000000115461E4637F006020DD02A46334600
:101B300000F098FD7F1E04EBC703D3E9002300F0FB
:101B400089FB37F00602F1D1022F25D0042F13D0E4
:101B5000062F18BFBDE8F0812A46334600F082FD0B
:101B6000D4E90A2300F076FB2A46334600F07AFDDA
:101B7000D4E9082300F06EFB2A46334600F072FDDC
:101B8000D4E9062300F066FB2A46334600F06AFDDE
:101B9000D4E9042300F05EFB2A46334600F062FDE0
:101BA000D4E9022300F056FB2A46334600F05AFDE2
:101BB000D4E90023BDE8F04100F04CBB012201F064
:101BC0003CBA0000024A0020110701F036BA0000BA
:101BD00001FDFFFF2DE9F84F04460D4621F00040BE
:101BE00000917349814211DC7249884201DC06D1BF
:101BF0002CB120462946BDE8F84FFFF7DFBF6E48FD
:101C0000002DCCBF6D496E49BDE8F88F6D4981420A
:101C100011DD6D498142D8BF4FF0FF366DDD2046A2
:101C20002946FFF752FF042808BFFFF7CBFF2046E5
:101C30002946BDE8F88F6549654F25F0004581428A
:101C400033DD6449814219DD002632464FF080437E
:101C50002046294600F0FEFA80468A4601222046A8
:101C6000294601F0EAF900223B4600F005FE424613
:101C7000534600F09FFB04460D463EE0012600223D
:101C8000BA463B462046294600F0E4FA80460F4615
:101C9000002253462046294600F0EEFD42463B46D0
:101CA00000F088FB04460D4627E04B4981421BDDCE
:101CB000DFF828A10226002253462046294600F0DC
:101CC000D1FC00223B4600F0C5FA80460F460022B8
:101CD00053462046294600F0CFFD42463B4600F0E1
:101CE00069FB04460D4608E0032622462B460020E9
:101CF0003B4900F05FFB04460D4622462B4610464A
:101D0000194600F0AFFC8B46824602460B4600F0B7
:101D1000A9FC07460246334888460B46062178440C
:101D2000FFF7F7FE52465B4600F09CFC82462E48C9
:101D30008B463A46434605217844FFF7EAFE3A4689
:101D4000434600F08FFC02460B46002E5046594693
:101D50000CDA00F07FFA22462B4600F083FC01B03B
:101D600022462B46BDE8F04F00F07ABD00F072FA33
:101D700022462B4600F076FC1C4A7A4402EBC6034E
:101D8000D3E9002300F078FD22462B4600F074FDD5
:101D9000174A7A4402EBC603D3E9002300F060FD42
:101DA000009A002AB8BF81F00041BDE8F88F00001A
:101DB000000010440000F07F182D4454FB21F93F2F
:101DC000FB21F9BF0000DC3F0000203E0000F33F94
:101DD0000000F03F0000E63F008003400000F83FB5
:101DE0000000F0BF36140000F4130000921300004E
:101DF0005A1300000448002101727D2101804180B6
:101E00008180C18070470000FC0000200448002150
:101E1000017041708170C1710172C1607047000032
:101E20005000002001490860704700001C0000209D
:101E30004FF47A71484300F001B8000070B54FF0DC
:101E4000E024002265690949A36909684843A1693A
:101E50009942FCD002D2A3EB010302E0A5EB0106FC
:101E600033441A440B468242F1D370BD1C0000205B
:101E7000FEF702FCFFF73EFC4820FFF7D3FFFFF719
:101E80001DFBFFF76BFBFFF79DFB1148FEF78EFF75
:101E9000104D114CDFF844804FF48076012700BFCD
:101EA000FFF7B4FFFFF7A6FF002231462846FEF7F2
:101EB000D0FBFFF7DBFA012231462846FEF7C9FBCB
:101EC000277098F80000401C607000F0FBF8E7E70E
:101ED00060000020000801405000002000000020A9
:101EE0002DE9F041254C264E264D274F4FF0000896
:101EF000387800283FD02548006818B12448016888
:101F0000491C0160A7F80280B4F90000002807DD31
:101F1000012202213046FEF79CFB2088401E2080D3
:101F2000B5F90000002807DD012220213046FEF728
:101F300090FB2888401E28803E20FFF77FFF00226C
:101F400002213046FEF785FB002220213046FEF7B5
:101F500080FB3E20FFF772FFB4F90000B5F90010D6
:101F6000084305D07888401C80B27880A028CBD95F
:101F700087F80080BCE7BDE8F08100002200002067
:101F80000008014020000020400000200400002044
:101F90000800002010B5094900F0E6FD00F056FDEC
:101FA000FFF718FE0022064B00F004FA0022054B52
:101FB00000F058FBBDE8104000F01AB9000096434D
:101FC000FA2109400080664010B5094900F0CCFDB7
:101FD00000F03CFDFFF7FEFD0022064B00F0EAF9A1
:101FE0000022054B00F03EFBBDE8104000F000B9B8
:101FF00000009643FA210940008066C010B50C46E7
:1020000000F03AF8204600F011F8074C02E000BF5B
:10201000FFF766FFB4F900000028F9DCB4F902000C
:102020000028F5DC10BD00002000002070B50E4D2A
:102030000446696800F036FD68600C4814F1FF4FF3
:1020400003D384F00044012200E000228021FEF747
:1020500000FB0749204600F087FD064900F07AFEA4
:1020600000F044FE288070BD2000002000080140E0
:102070000000B4430000C84570B50E4D0446A96881
:1020800000F010FDA8600C4814F1FF4F03D384F05A
:102090000044002200E001220821FEF7DAFA074995
:1020A000204600F061FD064900F054FE00F01EFEDF
:1020B000688070BD20000020000801400000B4438B
:1020C0000000C8450125324E324C334F4FF0FF38E7
:1020D000DFF8C89010E000BF00F06AF83068B8423E
:1020E00001DD454602E0484500D90125284600F0BB
:1020F00019FE0021FFF782FF60887D28ECD04FF4A5
:102100008076274F00F054F8B4F900007D282DD0D8
:10211000B4F902107D2929D0224D401A00B228803E
:10212000A188E288891A698000F0FCFDFFF74CFF66
:1021300000F08CFC4FF0333842461B4B00F092FA13
:1021400000F056F86860B5F9020000F0EBFDFFF70B
:1021500021FF00F07BFC4246144B00F083FA00F0B4
:1021600047F80146A8606868FFF748FF002231463B
:102170003846FEF76EFA3220FFF75AFE012231464A
:102180003846FEF766FA3220FFF752FEBAE7000043
:1021900028000020FC00002000003442000034C26F
:1021A00000080140440000203333D3BF3333D33F12
:1021B00070B541F2883350220A490B48FFF7FCF80A
:1021C00003280CD0074E094D0024305D2870FFF71E
:1021D00017FA641CE4B2502CF7D3002070BD012024
:1021E00070BD000010010020A80000202C0000207D
:1021F00021F00042A2F16052B2F5801F01F00043CD
:1022000028BFD2F17F6C0BD95FEA001C43EAC202FF
:1022100042EB507018BF704728BF20F00100704794
:10222000B2F5801FBCBF184670474FEA410C1CF541
:10223000001F02D2084600F054BE70B500F0BCFA90
:1022400000000089FFF7F6BF4FF00040A0F58000C6
:102250007047000010B591EA030F48BF83F00043B8
:1022600000F11283841A71EB030C05D2121943EBAF
:102270000C03001B61EB0C01DFF824E14FEA115461
:10228000A4EB135C1EEA430F18BF9EEA445F73D0B1
:1022900023EA0E03DCF1200E21EA045143F48013FB
:1022A00032D322FA0CFE10EB0E0023FA0CFE41EBA7
:1022B0000E01CCF1200E03FA0EFE10EB0E0051F1D0
:1022C0000001B1F5801FCCF1200E32D201EB045198
:1022D00012FA0EF2BDE8104058BF7047401C38BFDC
:1022E0005FEA420218BF7047002814BF20F00100C7
:1022F00041F100014FEA410313F5001F38BF704759
:10230000A1F1C04100F0A6BA012A43EB0302ACF1EF
:10231000200CDCF11F0E32BF4FF0000E23FA0CF33D
:1023200010EB030041EB0451B4EB115FD0D0A1EBF3
:10233000045101F5801149085FEA300001EB0451B6
:102340000ED350F1000038BF12FA0EFE08D1BDE8DE
:102350001040C9E7401C38BF5FEA4202CAD1C3E758
:10236000BDE810404FEA410313F5001F38BF704726
:10237000A1F1C04100F06EBA9EEA445F08D011EAB4
:102380005E0FBDE8104004BF01F00041002070471F
:10239000BDE8104070B500F00FFA00BF64FBBE3E10
:1023A0000000E0FF02494FF0000000F014BE00BF43
:1023B0000000F87F2DE9C04130B4DFF8A0C23CEA4C
:1023C000111418BF3CEA131400F0EC8081EA0305F5
:1023D0001CEA111444EAD57418BF1CEA131500F066
:1023E000C780A4EB05044FF0004545EAC12145EA4A
:1023F000C32341EA505143EA525304F17F74994296
:1024000004F500344FEAC0204FEAC22208BF9042D0
:1024100000F09C804FEA13650FF24016765D4FEA9C
:10242000134506FB05F7C7F1807706FB07F74FEA70
:10243000D737A7FB03687642C8F58038A7FB06CEDE
:1024400038BFA8F1010807FB08E64FF0000EA6FB15
:10245000028CE6FB03CEDCF1000CCEF1004E38BF5F
:10246000AEF1010EA6FB0C584FF000074FF000052F
:10247000E6FB0E87A1FB08C6A0FB07CE16EB0E06F7
:1024800045F10005E1FB076515F1E04E7EBFA4F5BF
:1024900080345FEA46066D4116F1800745F100057C
:1024A0004FEA17274FEA066647EA0567A6F1DE46B8
:1024B000B6F1805F4FEA15251FD9384624F0010C8C
:1024C00005EBC471BCF1FE6F01EB0C1102D8F0BC3E
:1024D000BDE8008124425CBF01F5801E9EEAC47FF6
:1024E00002D4F0BCBDE80081244238D4F0BCA1F194
:1024F000C041BDE8004100F0ADB94FEAD22242EA46
:1025000043524FEAD323A7FB02864FEAD02040EA8A
:10251000415007FB03661EEA0E0F4FEAD12105FB6F
:10252000026658BFA6EB0056B6EB00564FEA520EB5
:102530004EEAC37E18EB0E0E56EB530EBDD518EBCC
:1025400002085E417F1C55F10005B6E74FF4801587
:102550004FF000074FF000064FF00008ADE7F0BC69
:102560004FF0000001F1C04101F00041BDE80081E1
:1025700011EA0C1F0CEA131500D00CE013EA0C1F33
:1025800000F025804FF00000F0BC81EA030101F06B
:102590000041BDE80081F0BCBDE8004181EA0301D3
:1025A00000F058B9F0BCBDE8004170B500F004F986
:1025B000097EFC3E00F007B881EA03014FF00000FD
:1025C00001F00041704781EA030100F043B9F0BC1B
:1025D000BDE800414FF0000021497047FFFDFBF9C5
:1025E000F7F5F4F2F0EEEDEBE9E8E6E4E3E1E0DE46
:1025F000DDDBDAD8D7D5D4D3D1D0CFCDCCCBCAC8B8
:10260000C7C6C5C4C2C1C0BFBEBDBCBBBAB9B8B7DE
:10261000B6B5B4B3B2B1B0AFAEADACABAAA9A8A8D1
:10262000A7A6A5A4A3A3A2A1A09F9F9E9D9C9C9B9F
:102630009A9999989797969595949393929191904A
:102640008F8F8E8E8D8C8C8B8B8A898988888787DB
:102650008685858484838382828181800000FF0750
:102660000000F87FDFF848C170B51CEA111E1EBFDC
:102670001CEA13159EEA0C0F95EA0C0F00F06F8010
:1026800081EA030423EA4C134EEAD47E21EA4C117A
:1026900041F4801143F48013AE44A1FB024CA0FB33
:1026A0000365AEF17F7E361955EB0C05A1FB034C9B
:1026B0004CF10003A0FB021C16EB0C06654153F124
:1026C0000003094218BF46F0010613F4007F0BD146
:1026D0004FEA03314FEA0530340341EA155140EA2D
:1026E00016506FF003020AE04FEAC3214FEAC520FB
:1026F000F40241EA555140EA56506FF0020202EBF3
:102700002E4201EB025585EACE710AD05FEA440CF5
:1027100018BF24F0004450F1000041F1000120EA0C
:10272000D47040F2FE7C624500D270BDA84214BF56
:102730004FF080444FF04044002E08BF0024BEF10B
:10274000806FA8BFA1F1C041BDE8704080F28280D7
:102750004FF0000001F1C04101F0004170479EEAD6
:102760000C0F0CEA131518BF95EA0C0F06D04FF0AA
:10277000000081EA030E0EF0004170BD00F01CF86D
:102780008900013E00F007B800F009B84FEA430C99
:102790005FEA5C5C08D081EA030100F05BB84FEAB5
:1027A000410C5FEA5C5CF6D14FF0000001497047D4
:1027B0000000FF070000F87F0EF1020E2EF0030E5E
:1027C0005EF8046B364205D4012A43EB030515F588
:1027D000001F12D8012841EB010C1CF5001F0CD87A
:1027E0000ED14FEAD17C15F5001F0CEB4C0C0CF10F
:1027F000020C08BF4CEBD37C04E04FF0080C01E066
:102800004FEAD37C0CEB4C0526FA05F606F00706DA
:10281000B6F1040C06D20EEB860CBDE870404CF00D
:10282000010C6047DFE80CF0090B02024FF0004199
:102830004FF00000A1F5002170BD19461046012897
:1028400051EB010418BFD4F5001484BF002001F03F
:10285000004170BD0808A0F500114FEA3101704732
:1028600091EA030F10B581F000413FF5FBAC83F016
:10287000004300F009B8000010B591EA030F48BF0B
:1028800083F000433FF5EEAC841A71EB030C07D2E2
:1028900012198CF0004C43EB0C03001B61EB0C0194
:1028A000DFF8A4E14FEA1154A4EB135C1EEA430FD6
:1028B00018BF9EEA445F00F0B08023EA6E035242E4
:1028C00021EA0451C3EB6E0338BF5B1EDCF1200E1E
:1028D00025D322FA0CFE10EB0E0043FA0CFE41EB5E
:1028E0000E01CCF1200E03FA0EFE10EB0E0051F19A
:1028F0000001CCF1200E29D412FA0EF201EB0451A2
:10290000BDE8104058BF7047401C1CBFB2F1004FDB
:10291000704700280CBF491C20F00100704712EBE3
:10292000020E43EB030218BF4FF0010E4EEA4202C3
:10293000ACF1200CDCF11E0E54D943FA0CFE10EB66
:102940000E0051F1FF31CCF11E0ED5D50EF1010E66
:1029500012FA0EFE404141EB010101EB445C5FEADB
:102960005C5C10D910EBDE7001EB045138BFBEF196
:10297000004FBDE8104018BF704700280CBF491C2D
:1029800020F00100704730D24FEAD42C11F500112D
:1029900024F400641BD0B1FA81F20B3AA41AA41EED
:1029A000D2F12003914030FA03F31943904001EB38
:1029B000CC71002C01EB0451BDE81040A8BF70475A
:1029C00001F1C0414FF0000001F000417047B0FA42
:1029D00080F310FA03F100D110BDE41A173C48054A
:1029E000C90AE4E701EB045110BD491001EB0451A1
:1029F000BDE810404FEA300002E04FF000017047A0
:102A00004A0008BF0042F8D0B2F5001F28BF704747
:102A100001F000414FF0000070479EEA445F07D08C
:102A200011EA5E0FBDE8104004BF0021002070478E
:102A3000BDE8104070B5FFF7BFFE00BF40DFF63EB7
:102A400083F00041104670470000E0FF43004FEA6A
:102A5000D30C4FEA3C0C43401FBF40070CF16051C0
:102A600013F0FE4F70471CF0006F03D100200CF0F4
:102A7000004170470CF0004343EA507010B540EA43
:102A8000CC0000F0E8F900BF000000924FEA00011E
:102A9000FFF7E0BE4FF000414FF00000A1F500212C
:102AA0007047000090EA010F48BF81F0004100F13B
:102AB0002482421A3CBF801A89184FEAD0524FF044
:102AC0007F4C1CEA410FA2EBD15318BF9CEA026F66
:102AD00000F03B804FF0004C4CEA00204CEA012112
:102AE00021FA03FC10EB0C0C1ED202F1FF325FEA5C
:102AF0001C2040EBC25038BF70471CF07F0F4FEADC
:102B0000400C18BFBCF17F4F38BF7047C3F12003A2
:102B1000994008BF20F00100BCF17F4F38BF7047DB
:102B2000A0F1C04000F0DDB94FEA3C00000A40EBE4
:102B3000C25028BF1CF0FF0F4FEA400CE6D018BF70
:102B4000BCF17F4F38BF7047EAE79CEA026F05D0BF
:102B500010EA5C0F08BF00F00040704710B500F0AD
:102B60007AF900BF64FBBE3E4FF47F0C1CEAD01222
:102B70001EBF1CEAD11392EA0C0F93EA0C0F00F06F
:102B8000858090EA010F48BF42F4807240F4000C47
:102B900041F400002CF07F4120F07F4000B58142DD
:102BA000A2EB03020FF2081CACEB504EC0F1000088
:102BB0009EF800E04FEA4E0E00FB0EFC38BF4900C5
:102BC0004FEA2C1C02F5FA020CFB0EF34FEACE1E64
:102BD0004FEA112C4FEAC1210EEB635E42EB224219
:102BE0000EFB0CFC4FEA1C5300FB03114FEA112CA7
:102BF0004FEA01310EFB0CFC4FEADC4C00FB0C11E0
:102C0000C14228BF09184CEB03335DF804EB10EB0D
:102C1000410143EBC250B2F57C0F38BF704729D554
:102C200012F0F00F1CBF00F1C04000F000407047F0
:102C3000008182838485868788898B8C8D8E8F9195
:102C40009293959697999A9C9D9FA0A2A3A5A7A8B9
:102C5000AAACAEB0B2B3B5B7B9BCBEC0C2C5C7C9E5
:102C6000CCCED1D4D7D9DCDFE2E6E9ECF0F3F7FA49
:102C7000FE0000004FEA400C0CF1807CBCF17E4F5E
:102C800028BF7047B0F1C04000F02BB990EA010FA7
:102C90000CEAD11348BF42F48072624538BF6345E5
:102CA00007D213F47F0F16D080EA010000F0004035
:102CB000704710B500F0CFF8097EFC3E00F005B873
:102CC00080EA010000F00040704780EA010000F057
:102CD000004000F006B912F47F0F04BF02487047AD
:102CE00080EA010000F0FDB80000C07F41000B0E3B
:102CF000D3F19E0208D950F400034FEA032323FACC
:102D000002F048BF4042704710B500F0A4F800BF81
:102D100049922480002070476FF0004282EA200030
:102D20007047000010F0004148BF4042B0FA80F305
:102D300010FA03F2C3F19D030BD051EAC35101EB2A
:102D40001220530638BF704700F1010008BF20F081
:102D5000010070474FF47F0C1CEAD0121EBF1CEA22
:102D6000D11392EA0C0F93EA0C0F00F0478090EA1F
:102D7000010F48BF42F480724FF0004C4CEA002033
:102D80004CEA012102EB0302A0FB0113A2F50002B1
:102D9000002918BF43F001035B0028BF4FEA33034B
:102DA00042EB22425FEA132C4CEBC2502EBFBCEB2D
:102DB000436FB2F57C0F70474FEA036CBCF1004FD4
:102DC00008BF20F00100B2F57C0F38BF70470BD56B
:102DD00082F0FF0212F5803FC8BF704700F1C0408B
:102DE000D8BF00F00040704700F5000C5FEA4C0CC3
:102DF00048BF7047B0F1C04000F073B890EA010FCF
:102E00000CEAD11348BF42F48072624538BF634573
:102E100004D280EA010000F00040704710B500F0D5
:102E20001AF800BF8900013E00F007B800F009B8A9
:102E30005FEA410C5FEA1C6C08D080EA010000F0F8
:102E400050B85FEA400C5FEA1C6CF6D14FF00040CE
:102E5000A0F5800070470EF1020E2EF0030E5EF812
:102E6000044B244204D44FEA4102B2F17F4F11D8FF
:102E70004FEA4003B3F17F4F0CD80ED14FEAD07C1C
:102E8000B2F17F4F0CEB4C0C0CF1020C08BF4CEB79
:102E9000D17C04E04FF0080C01E04FEAD17C0CEB50
:102EA0004C0324FA03F404F00704B4F1040C06D232
:102EB0000EEB840CBDE810404CF0010C6047DFE8DD
:102EC0000CF0070802024FF00040A0F5800010BD92
:102ED0000846420018BFD2F1807288BF00F000405F
:102EE00010BDFF2141EAD050C005704790EA010FA4
:102EF00048BF81F000413FF5DCAD421A04D882F0B2
:102F00000042A0EB020011444FEAD0524FF07F4C38
:102F10001CEA410FA2EBD15318BF9CEA026F4AD0C2
:102F20004FF0004C4CEA00204CEA012121FA03FC4E
:102F3000B0EB0C0C0FD412F0FE0F36D05FEA4C0051
:102F40001DD5001240EBC25038BF70471CF03F0F38
:102F500018BF70470BE0A2F101025FEA1C2040EBB2
:102F6000C25038BF70471CF07F0F18BF7047C3F1C5
:102F70002003994014BF401E20F0010070478008D4
:102F80004FEA122308BF7047B0FA80FCA2EB0C0294
:102F9000CCF1280C60FA0CF093EA122F04BF00EB7E
:102FA000C25070474FEAC3707047130A5FEADC10E3
:102FB00008BF7047F6E79CEA026F04D010EA5C0F86
:102FC00008BF0020704710B5FFF745FF40DFF63E11
:102FD00081F0004070470CF00F03092B08BF082058
:102FE00000F059800A2B0BD0082B18BF704708BF80
:102FF0001CF0400F0AD04FF000004FF00001704766
:103000001CF0400F18BF4FF0004070471CF0100F2D
:1030100008D020F0704300F07F4242EAD3014FEA2B
:103020004370704700F0604021F07F4242EA0002A6
:1030300001F07F4040EA727070474FF0FF0C4CF493
:10304000E06C1CEA11531CBF9CEA030C9445C2BF00
:10305000DA4201EB02517047002B0DD0BCF1000F9A
:103060000FD0002A01F00041A4BF41F0E04141F03F
:103070007F614FF00000704701F000414FF0000009
:10308000704750EA01334FF09B0C18BF4CF0806C36
:103090007FF488A970471CF4801F11D01CF4E02F26
:1030A00003D06FEACC31490070474FF04050EFF346
:1030B000008222F0704242EA000282F300887047E8
:1030C0004FF00000704701020203040506070809DB
:1030D0000A0B0C0D0E0F1010000000000000000085
:1030E00001020304060708090000000001020304AE
:1030F0004FBB610567ACDD3F182D4454FB21E93F10
:103100009BF681D20B73EF3F182D4454FB21F93FFE
:10311000E2652F227F2B7A3C075C143326A6813C84
:10312000BDCBF07A8807703C075C143326A6913C2F
:10313000C4EB98999999C9BF711623FEC671BCBF9B
:103140006D9A74AFF2B0B3BF9AFDDE522DDEADBF03
:103150002F6C6A2C44B4A2BF0D5555555555D53F1B
:10316000FF8300922449C23F6E204CC5CD45B73F36
:10317000513DD0A0660DB13FEB0D76244B7BA93FAE
:1031800011DA22E33AAD903FA83100080000002098
:10319000500000006C010008F831000850000020C9
:1031A00088070000880100080000000000000000FF
:1031B00000000000010000001000000000000000FE
:1031C0000024F400000000000000000000000000E7
:1031D00000000000000000000000000000000000EF
:1031E00000000000000000000000000000000000DF
:0831F0000000000000000000D7
:0400000508000131BD
:00000001FF
